{
  "contractName": "TokenMerito",
  "abi": [
    {
      "inputs": [],
      "stateMutability": "nonpayable",
      "type": "constructor"
    },
    {
      "anonymous": false,
      "inputs": [
        {
          "indexed": true,
          "internalType": "address",
          "name": "owner",
          "type": "address"
        },
        {
          "indexed": true,
          "internalType": "address",
          "name": "approved",
          "type": "address"
        },
        {
          "indexed": true,
          "internalType": "uint256",
          "name": "tokenId",
          "type": "uint256"
        }
      ],
      "name": "Approval",
      "type": "event"
    },
    {
      "anonymous": false,
      "inputs": [
        {
          "indexed": true,
          "internalType": "address",
          "name": "owner",
          "type": "address"
        },
        {
          "indexed": true,
          "internalType": "address",
          "name": "operator",
          "type": "address"
        },
        {
          "indexed": false,
          "internalType": "bool",
          "name": "approved",
          "type": "bool"
        }
      ],
      "name": "ApprovalForAll",
      "type": "event"
    },
    {
      "anonymous": false,
      "inputs": [
        {
          "indexed": true,
          "internalType": "bytes32",
          "name": "role",
          "type": "bytes32"
        },
        {
          "indexed": true,
          "internalType": "bytes32",
          "name": "previousAdminRole",
          "type": "bytes32"
        },
        {
          "indexed": true,
          "internalType": "bytes32",
          "name": "newAdminRole",
          "type": "bytes32"
        }
      ],
      "name": "RoleAdminChanged",
      "type": "event"
    },
    {
      "anonymous": false,
      "inputs": [
        {
          "indexed": true,
          "internalType": "bytes32",
          "name": "role",
          "type": "bytes32"
        },
        {
          "indexed": true,
          "internalType": "address",
          "name": "account",
          "type": "address"
        },
        {
          "indexed": true,
          "internalType": "address",
          "name": "sender",
          "type": "address"
        }
      ],
      "name": "RoleGranted",
      "type": "event"
    },
    {
      "anonymous": false,
      "inputs": [
        {
          "indexed": true,
          "internalType": "bytes32",
          "name": "role",
          "type": "bytes32"
        },
        {
          "indexed": true,
          "internalType": "address",
          "name": "account",
          "type": "address"
        },
        {
          "indexed": true,
          "internalType": "address",
          "name": "sender",
          "type": "address"
        }
      ],
      "name": "RoleRevoked",
      "type": "event"
    },
    {
      "anonymous": false,
      "inputs": [
        {
          "indexed": true,
          "internalType": "address",
          "name": "from",
          "type": "address"
        },
        {
          "indexed": true,
          "internalType": "address",
          "name": "to",
          "type": "address"
        },
        {
          "indexed": true,
          "internalType": "uint256",
          "name": "tokenId",
          "type": "uint256"
        }
      ],
      "name": "Transfer",
      "type": "event"
    },
    {
      "inputs": [],
      "name": "DEFAULT_ADMIN_ROLE",
      "outputs": [
        {
          "internalType": "bytes32",
          "name": "",
          "type": "bytes32"
        }
      ],
      "stateMutability": "view",
      "type": "function",
      "constant": true
    },
    {
      "inputs": [],
      "name": "MINTER_ROLE",
      "outputs": [
        {
          "internalType": "bytes32",
          "name": "",
          "type": "bytes32"
        }
      ],
      "stateMutability": "view",
      "type": "function",
      "constant": true
    },
    {
      "inputs": [
        {
          "internalType": "address",
          "name": "to",
          "type": "address"
        },
        {
          "internalType": "uint256",
          "name": "tokenId",
          "type": "uint256"
        }
      ],
      "name": "approve",
      "outputs": [],
      "stateMutability": "nonpayable",
      "type": "function"
    },
    {
      "inputs": [
        {
          "internalType": "address",
          "name": "owner",
          "type": "address"
        }
      ],
      "name": "balanceOf",
      "outputs": [
        {
          "internalType": "uint256",
          "name": "",
          "type": "uint256"
        }
      ],
      "stateMutability": "view",
      "type": "function",
      "constant": true
    },
    {
      "inputs": [],
      "name": "baseTokenURI",
      "outputs": [
        {
          "internalType": "string",
          "name": "",
          "type": "string"
        }
      ],
      "stateMutability": "view",
      "type": "function",
      "constant": true
    },
    {
      "inputs": [
        {
          "internalType": "uint256",
          "name": "tokenId",
          "type": "uint256"
        }
      ],
      "name": "getApproved",
      "outputs": [
        {
          "internalType": "address",
          "name": "",
          "type": "address"
        }
      ],
      "stateMutability": "view",
      "type": "function",
      "constant": true
    },
    {
      "inputs": [
        {
          "internalType": "bytes32",
          "name": "role",
          "type": "bytes32"
        }
      ],
      "name": "getRoleAdmin",
      "outputs": [
        {
          "internalType": "bytes32",
          "name": "",
          "type": "bytes32"
        }
      ],
      "stateMutability": "view",
      "type": "function",
      "constant": true
    },
    {
      "inputs": [
        {
          "internalType": "bytes32",
          "name": "role",
          "type": "bytes32"
        },
        {
          "internalType": "address",
          "name": "account",
          "type": "address"
        }
      ],
      "name": "grantRole",
      "outputs": [],
      "stateMutability": "nonpayable",
      "type": "function"
    },
    {
      "inputs": [
        {
          "internalType": "bytes32",
          "name": "role",
          "type": "bytes32"
        },
        {
          "internalType": "address",
          "name": "account",
          "type": "address"
        }
      ],
      "name": "hasRole",
      "outputs": [
        {
          "internalType": "bool",
          "name": "",
          "type": "bool"
        }
      ],
      "stateMutability": "view",
      "type": "function",
      "constant": true
    },
    {
      "inputs": [
        {
          "internalType": "address",
          "name": "owner",
          "type": "address"
        },
        {
          "internalType": "address",
          "name": "operator",
          "type": "address"
        }
      ],
      "name": "isApprovedForAll",
      "outputs": [
        {
          "internalType": "bool",
          "name": "",
          "type": "bool"
        }
      ],
      "stateMutability": "view",
      "type": "function",
      "constant": true
    },
    {
      "inputs": [],
      "name": "name",
      "outputs": [
        {
          "internalType": "string",
          "name": "",
          "type": "string"
        }
      ],
      "stateMutability": "view",
      "type": "function",
      "constant": true
    },
    {
      "inputs": [
        {
          "internalType": "uint256",
          "name": "tokenId",
          "type": "uint256"
        }
      ],
      "name": "ownerOf",
      "outputs": [
        {
          "internalType": "address",
          "name": "",
          "type": "address"
        }
      ],
      "stateMutability": "view",
      "type": "function",
      "constant": true
    },
    {
      "inputs": [
        {
          "internalType": "bytes32",
          "name": "role",
          "type": "bytes32"
        },
        {
          "internalType": "address",
          "name": "account",
          "type": "address"
        }
      ],
      "name": "renounceRole",
      "outputs": [],
      "stateMutability": "nonpayable",
      "type": "function"
    },
    {
      "inputs": [
        {
          "internalType": "bytes32",
          "name": "role",
          "type": "bytes32"
        },
        {
          "internalType": "address",
          "name": "account",
          "type": "address"
        }
      ],
      "name": "revokeRole",
      "outputs": [],
      "stateMutability": "nonpayable",
      "type": "function"
    },
    {
      "inputs": [
        {
          "internalType": "address",
          "name": "from",
          "type": "address"
        },
        {
          "internalType": "address",
          "name": "to",
          "type": "address"
        },
        {
          "internalType": "uint256",
          "name": "tokenId",
          "type": "uint256"
        }
      ],
      "name": "safeTransferFrom",
      "outputs": [],
      "stateMutability": "nonpayable",
      "type": "function"
    },
    {
      "inputs": [
        {
          "internalType": "address",
          "name": "from",
          "type": "address"
        },
        {
          "internalType": "address",
          "name": "to",
          "type": "address"
        },
        {
          "internalType": "uint256",
          "name": "tokenId",
          "type": "uint256"
        },
        {
          "internalType": "bytes",
          "name": "data",
          "type": "bytes"
        }
      ],
      "name": "safeTransferFrom",
      "outputs": [],
      "stateMutability": "nonpayable",
      "type": "function"
    },
    {
      "inputs": [
        {
          "internalType": "address",
          "name": "operator",
          "type": "address"
        },
        {
          "internalType": "bool",
          "name": "approved",
          "type": "bool"
        }
      ],
      "name": "setApprovalForAll",
      "outputs": [],
      "stateMutability": "nonpayable",
      "type": "function"
    },
    {
      "inputs": [],
      "name": "symbol",
      "outputs": [
        {
          "internalType": "string",
          "name": "",
          "type": "string"
        }
      ],
      "stateMutability": "view",
      "type": "function",
      "constant": true
    },
    {
      "inputs": [
        {
          "internalType": "uint256",
          "name": "index",
          "type": "uint256"
        }
      ],
      "name": "tokenByIndex",
      "outputs": [
        {
          "internalType": "uint256",
          "name": "",
          "type": "uint256"
        }
      ],
      "stateMutability": "view",
      "type": "function",
      "constant": true
    },
    {
      "inputs": [
        {
          "internalType": "address",
          "name": "owner",
          "type": "address"
        },
        {
          "internalType": "uint256",
          "name": "index",
          "type": "uint256"
        }
      ],
      "name": "tokenOfOwnerByIndex",
      "outputs": [
        {
          "internalType": "uint256",
          "name": "",
          "type": "uint256"
        }
      ],
      "stateMutability": "view",
      "type": "function",
      "constant": true
    },
    {
      "inputs": [],
      "name": "totalSupply",
      "outputs": [
        {
          "internalType": "uint256",
          "name": "",
          "type": "uint256"
        }
      ],
      "stateMutability": "view",
      "type": "function",
      "constant": true
    },
    {
      "inputs": [
        {
          "internalType": "address",
          "name": "from",
          "type": "address"
        },
        {
          "internalType": "address",
          "name": "to",
          "type": "address"
        },
        {
          "internalType": "uint256",
          "name": "tokenId",
          "type": "uint256"
        }
      ],
      "name": "transferFrom",
      "outputs": [],
      "stateMutability": "nonpayable",
      "type": "function"
    },
    {
      "inputs": [
        {
          "internalType": "address",
          "name": "student",
          "type": "address"
        },
        {
          "internalType": "string",
          "name": "uri",
          "type": "string"
        }
      ],
      "name": "awardAchievement",
      "outputs": [
        {
          "internalType": "uint256",
          "name": "",
          "type": "uint256"
        }
      ],
      "stateMutability": "nonpayable",
      "type": "function"
    },
    {
      "inputs": [
        {
          "internalType": "address",
          "name": "_owner",
          "type": "address"
        }
      ],
      "name": "tokensOfOwner",
      "outputs": [
        {
          "internalType": "uint256[]",
          "name": "",
          "type": "uint256[]"
        }
      ],
      "stateMutability": "view",
      "type": "function",
      "constant": true
    },
    {
      "inputs": [
        {
          "internalType": "uint256",
          "name": "tokenId",
          "type": "uint256"
        }
      ],
      "name": "tokenURI",
      "outputs": [
        {
          "internalType": "string",
          "name": "",
          "type": "string"
        }
      ],
      "stateMutability": "view",
      "type": "function",
      "constant": true
    },
    {
      "inputs": [
        {
          "internalType": "bytes4",
          "name": "interfaceId",
          "type": "bytes4"
        }
      ],
      "name": "supportsInterface",
      "outputs": [
        {
          "internalType": "bool",
          "name": "",
          "type": "bool"
        }
      ],
      "stateMutability": "view",
      "type": "function",
      "constant": true
    }
  ],
  "bytecode": "0x60806040523480156200001157600080fd5b506040518060400160405280600b81526020017f546f6b656e4d657269746f0000000000000000000000000000000000000000008152506040518060400160405280600481526020017f544f4d450000000000000000000000000000000000000000000000000000000081525081600090816200008f9190620004b4565b508060019081620000a19190620004b4565b505050620000b96000801b33620000bf60201b60201c565b6200059b565b620000d18282620000d560201b60201c565b5050565b620000e78282620001c760201b60201c565b620001c3576001600b600084815260200190815260200160002060000160008373ffffffffffffffffffffffffffffffffffffffff1673ffffffffffffffffffffffffffffffffffffffff16815260200190815260200160002060006101000a81548160ff021916908315150217905550620001686200023260201b60201c565b73ffffffffffffffffffffffffffffffffffffffff168173ffffffffffffffffffffffffffffffffffffffff16837f2f8788117e7eff1d82e926ec794901d17c78024a50270940304540a733656f0d60405160405180910390a45b5050565b6000600b600084815260200190815260200160002060000160008373ffffffffffffffffffffffffffffffffffffffff1673ffffffffffffffffffffffffffffffffffffffff16815260200190815260200160002060009054906101000a900460ff16905092915050565b600033905090565b600081519050919050565b7f4e487b7100000000000000000000000000000000000000000000000000000000600052604160045260246000fd5b7f4e487b7100000000000000000000000000000000000000000000000000000000600052602260045260246000fd5b60006002820490506001821680620002bc57607f821691505b602082108103620002d257620002d162000274565b5b50919050565b60008190508160005260206000209050919050565b60006020601f8301049050919050565b600082821b905092915050565b6000600883026200033c7fffffffffffffffffffffffffffffffffffffffffffffffffffffffffffffffff82620002fd565b620003488683620002fd565b95508019841693508086168417925050509392505050565b6000819050919050565b6000819050919050565b6000620003956200038f620003898462000360565b6200036a565b62000360565b9050919050565b6000819050919050565b620003b18362000374565b620003c9620003c0826200039c565b8484546200030a565b825550505050565b600090565b620003e0620003d1565b620003ed818484620003a6565b505050565b5b81811015620004155762000409600082620003d6565b600181019050620003f3565b5050565b601f82111562000464576200042e81620002d8565b6200043984620002ed565b8101602085101562000449578190505b620004616200045885620002ed565b830182620003f2565b50505b505050565b600082821c905092915050565b6000620004896000198460080262000469565b1980831691505092915050565b6000620004a4838362000476565b9150826002028217905092915050565b620004bf826200023a565b67ffffffffffffffff811115620004db57620004da62000245565b5b620004e78254620002a3565b620004f482828562000419565b600060209050601f8311600181146200052c576000841562000517578287015190505b62000523858262000496565b86555062000593565b601f1984166200053c86620002d8565b60005b8281101562000566578489015182556001820191506020850194506020810190506200053f565b8683101562000586578489015162000582601f89168262000476565b8355505b6001600288020188555050505b505050505050565b6143a580620005ab6000396000f3fe608060405234801561001057600080fd5b506004361061018e5760003560e01c80636352211e116100de578063a22cb46511610097578063d539139311610071578063d5391393146104df578063d547741f146104fd578063d547cfb714610519578063e985e9c5146105375761018e565b8063a22cb46514610477578063b88d4fde14610493578063c87b56dd146104af5761018e565b80636352211e1461037b57806370a08231146103ab5780638462151c146103db57806391d148541461040b57806395d89b411461043b578063a217fddf146104595761018e565b8063248a9ca31161014b57806336568abe1161012557806336568abe146102e357806342842e0e146102ff57806348dfd20e1461031b5780634f6ccce71461034b5761018e565b8063248a9ca3146102675780632f2ff15d146102975780632f745c59146102b35761018e565b806301ffc9a71461019357806306fdde03146101c3578063081812fc146101e1578063095ea7b31461021157806318160ddd1461022d57806323b872dd1461024b575b600080fd5b6101ad60048036038101906101a89190612b4d565b610567565b6040516101ba9190612b95565b60405180910390f35b6101cb610579565b6040516101d89190612c40565b60405180910390f35b6101fb60048036038101906101f69190612c98565b61060b565b6040516102089190612d06565b60405180910390f35b61022b60048036038101906102269190612d4d565b610651565b005b610235610768565b6040516102429190612d9c565b60405180910390f35b61026560048036038101906102609190612db7565b610775565b005b610281600480360381019061027c9190612e40565b6107d5565b60405161028e9190612e7c565b60405180910390f35b6102b160048036038101906102ac9190612e97565b6107f5565b005b6102cd60048036038101906102c89190612d4d565b610816565b6040516102da9190612d9c565b60405180910390f35b6102fd60048036038101906102f89190612e97565b6108bb565b005b61031960048036038101906103149190612db7565b61093e565b005b6103356004803603810190610330919061300c565b61095e565b6040516103429190612d9c565b60405180910390f35b61036560048036038101906103609190612c98565b6109ff565b6040516103729190612d9c565b60405180910390f35b61039560048036038101906103909190612c98565b610a70565b6040516103a29190612d06565b60405180910390f35b6103c560048036038101906103c09190613068565b610af6565b6040516103d29190612d9c565b60405180910390f35b6103f560048036038101906103f09190613068565b610bad565b6040516104029190613153565b60405180910390f35b61042560048036038101906104209190612e97565b610c5b565b6040516104329190612b95565b60405180910390f35b610443610cc6565b6040516104509190612c40565b60405180910390f35b610461610d58565b60405161046e9190612e7c565b60405180910390f35b610491600480360381019061048c91906131a1565b610d5f565b005b6104ad60048036038101906104a89190613282565b610d75565b005b6104c960048036038101906104c49190612c98565b610dd7565b6040516104d69190612c40565b60405180910390f35b6104e7610de9565b6040516104f49190612e7c565b60405180910390f35b61051760048036038101906105129190612e97565b610e0d565b005b610521610e2e565b60405161052e9190612c40565b60405180910390f35b610551600480360381019061054c9190613305565b610ebc565b60405161055e9190612b95565b60405180910390f35b600061057282610f50565b9050919050565b60606000805461058890613374565b80601f01602080910402602001604051908101604052809291908181526020018280546105b490613374565b80156106015780601f106105d657610100808354040283529160200191610601565b820191906000526020600020905b8154815290600101906020018083116105e457829003601f168201915b5050505050905090565b600061061682610fca565b6004600083815260200190815260200160002060009054906101000a900473ffffffffffffffffffffffffffffffffffffffff169050919050565b600061065c82610a70565b90508073ffffffffffffffffffffffffffffffffffffffff168373ffffffffffffffffffffffffffffffffffffffff16036106cc576040517f08c379a00000000000000000000000000000000000000000000000000000000081526004016106c390613417565b60405180910390fd5b8073ffffffffffffffffffffffffffffffffffffffff166106eb611015565b73ffffffffffffffffffffffffffffffffffffffff16148061071a575061071981610714611015565b610ebc565b5b610759576040517f08c379a0000000000000000000000000000000000000000000000000000000008152600401610750906134a9565b60405180910390fd5b610763838361101d565b505050565b6000600980549050905090565b610786610780611015565b826110d6565b6107c5576040517f08c379a00000000000000000000000000000000000000000000000000000000081526004016107bc9061353b565b60405180910390fd5b6107d083838361116b565b505050565b6000600b6000838152602001908152602001600020600101549050919050565b6107fe826107d5565b61080781611464565b6108118383611478565b505050565b600061082183610af6565b8210610862576040517f08c379a0000000000000000000000000000000000000000000000000000000008152600401610859906135cd565b60405180910390fd5b600760008473ffffffffffffffffffffffffffffffffffffffff1673ffffffffffffffffffffffffffffffffffffffff168152602001908152602001600020600083815260200190815260200160002054905092915050565b6108c3611015565b73ffffffffffffffffffffffffffffffffffffffff168173ffffffffffffffffffffffffffffffffffffffff1614610930576040517f08c379a00000000000000000000000000000000000000000000000000000000081526004016109279061365f565b60405180910390fd5b61093a8282611559565b5050565b61095983838360405180602001604052806000815250610d75565b505050565b600061098a7f9f2df0fed2c77648de5860a4cc508cd0818c85b8b8a1ab4ceeef8d981c8956a633610c5b565b6109c9576040517f08c379a00000000000000000000000000000000000000000000000000000000081526004016109c0906136cb565b60405180910390fd5b60006109d5600c61163b565b90506109e18482611649565b6109eb8184611866565b6109f5600c6118d3565b8091505092915050565b6000610a09610768565b8210610a4a576040517f08c379a0000000000000000000000000000000000000000000000000000000008152600401610a419061375d565b60405180910390fd5b60098281548110610a5e57610a5d61377d565b5b90600052602060002001549050919050565b600080610a7c836118e9565b9050600073ffffffffffffffffffffffffffffffffffffffff168173ffffffffffffffffffffffffffffffffffffffff1603610aed576040517f08c379a0000000000000000000000000000000000000000000000000000000008152600401610ae4906137f8565b60405180910390fd5b80915050919050565b60008073ffffffffffffffffffffffffffffffffffffffff168273ffffffffffffffffffffffffffffffffffffffff1603610b66576040517f08c379a0000000000000000000000000000000000000000000000000000000008152600401610b5d9061388a565b60405180910390fd5b600360008373ffffffffffffffffffffffffffffffffffffffff1673ffffffffffffffffffffffffffffffffffffffff168152602001908152602001600020549050919050565b60606000610bba83610af6565b905060008167ffffffffffffffff811115610bd857610bd7612ee1565b5b604051908082528060200260200182016040528015610c065781602001602082028036833780820191505090505b50905060005b82811015610c5057610c1e8582610816565b828281518110610c3157610c3061377d565b5b6020026020010181815250508080610c48906138d9565b915050610c0c565b508092505050919050565b6000600b600084815260200190815260200160002060000160008373ffffffffffffffffffffffffffffffffffffffff1673ffffffffffffffffffffffffffffffffffffffff16815260200190815260200160002060009054906101000a900460ff16905092915050565b606060018054610cd590613374565b80601f0160208091040260200160405190810160405280929190818152602001828054610d0190613374565b8015610d4e5780601f10610d2357610100808354040283529160200191610d4e565b820191906000526020600020905b815481529060010190602001808311610d3157829003601f168201915b5050505050905090565b6000801b81565b610d71610d6a611015565b8383611926565b5050565b610d86610d80611015565b836110d6565b610dc5576040517f08c379a0000000000000000000000000000000000000000000000000000000008152600401610dbc9061353b565b60405180910390fd5b610dd184848484611a92565b50505050565b6060610de282611aee565b9050919050565b7f9f2df0fed2c77648de5860a4cc508cd0818c85b8b8a1ab4ceeef8d981c8956a681565b610e16826107d5565b610e1f81611464565b610e298383611559565b505050565b600d8054610e3b90613374565b80601f0160208091040260200160405190810160405280929190818152602001828054610e6790613374565b8015610eb45780601f10610e8957610100808354040283529160200191610eb4565b820191906000526020600020905b815481529060010190602001808311610e9757829003601f168201915b505050505081565b6000600560008473ffffffffffffffffffffffffffffffffffffffff1673ffffffffffffffffffffffffffffffffffffffff16815260200190815260200160002060008373ffffffffffffffffffffffffffffffffffffffff1673ffffffffffffffffffffffffffffffffffffffff16815260200190815260200160002060009054906101000a900460ff16905092915050565b60007f7965db0b000000000000000000000000000000000000000000000000000000007bffffffffffffffffffffffffffffffffffffffffffffffffffffffff1916827bffffffffffffffffffffffffffffffffffffffffffffffffffffffff19161480610fc35750610fc282611c00565b5b9050919050565b610fd381611c7a565b611012576040517f08c379a0000000000000000000000000000000000000000000000000000000008152600401611009906137f8565b60405180910390fd5b50565b600033905090565b816004600083815260200190815260200160002060006101000a81548173ffffffffffffffffffffffffffffffffffffffff021916908373ffffffffffffffffffffffffffffffffffffffff160217905550808273ffffffffffffffffffffffffffffffffffffffff1661109083610a70565b73ffffffffffffffffffffffffffffffffffffffff167f8c5be1e5ebec7d5bd14f71427d1e84f3dd0314c0f7b2291e5b200ac8c7c3b92560405160405180910390a45050565b6000806110e283610a70565b90508073ffffffffffffffffffffffffffffffffffffffff168473ffffffffffffffffffffffffffffffffffffffff16148061112457506111238185610ebc565b5b8061116257508373ffffffffffffffffffffffffffffffffffffffff1661114a8461060b565b73ffffffffffffffffffffffffffffffffffffffff16145b91505092915050565b8273ffffffffffffffffffffffffffffffffffffffff1661118b82610a70565b73ffffffffffffffffffffffffffffffffffffffff16146111e1576040517f08c379a00000000000000000000000000000000000000000000000000000000081526004016111d890613993565b60405180910390fd5b600073ffffffffffffffffffffffffffffffffffffffff168273ffffffffffffffffffffffffffffffffffffffff1603611250576040517f08c379a000000000000000000000000000000000000000000000000000000000815260040161124790613a25565b60405180910390fd5b61125d8383836001611cbb565b8273ffffffffffffffffffffffffffffffffffffffff1661127d82610a70565b73ffffffffffffffffffffffffffffffffffffffff16146112d3576040517f08c379a00000000000000000000000000000000000000000000000000000000081526004016112ca90613993565b60405180910390fd5b6004600082815260200190815260200160002060006101000a81549073ffffffffffffffffffffffffffffffffffffffff02191690556001600360008573ffffffffffffffffffffffffffffffffffffffff1673ffffffffffffffffffffffffffffffffffffffff168152602001908152602001600020600082825403925050819055506001600360008473ffffffffffffffffffffffffffffffffffffffff1673ffffffffffffffffffffffffffffffffffffffff16815260200190815260200160002060008282540192505081905550816002600083815260200190815260200160002060006101000a81548173ffffffffffffffffffffffffffffffffffffffff021916908373ffffffffffffffffffffffffffffffffffffffff160217905550808273ffffffffffffffffffffffffffffffffffffffff168473ffffffffffffffffffffffffffffffffffffffff167fddf252ad1be2c89b69c2b068fc378daa952ba7f163c4a11628f55a4df523b3ef60405160405180910390a461145f8383836001611ccd565b505050565b61147581611470611015565b611cd3565b50565b6114828282610c5b565b611555576001600b600084815260200190815260200160002060000160008373ffffffffffffffffffffffffffffffffffffffff1673ffffffffffffffffffffffffffffffffffffffff16815260200190815260200160002060006101000a81548160ff0219169083151502179055506114fa611015565b73ffffffffffffffffffffffffffffffffffffffff168173ffffffffffffffffffffffffffffffffffffffff16837f2f8788117e7eff1d82e926ec794901d17c78024a50270940304540a733656f0d60405160405180910390a45b5050565b6115638282610c5b565b15611637576000600b600084815260200190815260200160002060000160008373ffffffffffffffffffffffffffffffffffffffff1673ffffffffffffffffffffffffffffffffffffffff16815260200190815260200160002060006101000a81548160ff0219169083151502179055506115dc611015565b73ffffffffffffffffffffffffffffffffffffffff168173ffffffffffffffffffffffffffffffffffffffff16837ff6391f5c32d9c69d2a47ea670b442974b53935d1edc7fd64eb21e047a839171b60405160405180910390a45b5050565b600081600001549050919050565b600073ffffffffffffffffffffffffffffffffffffffff168273ffffffffffffffffffffffffffffffffffffffff16036116b8576040517f08c379a00000000000000000000000000000000000000000000000000000000081526004016116af90613a91565b60405180910390fd5b6116c181611c7a565b15611701576040517f08c379a00000000000000000000000000000000000000000000000000000000081526004016116f890613afd565b60405180910390fd5b61170f600083836001611cbb565b61171881611c7a565b15611758576040517f08c379a000000000000000000000000000000000000000000000000000000000815260040161174f90613afd565b60405180910390fd5b6001600360008473ffffffffffffffffffffffffffffffffffffffff1673ffffffffffffffffffffffffffffffffffffffff16815260200190815260200160002060008282540192505081905550816002600083815260200190815260200160002060006101000a81548173ffffffffffffffffffffffffffffffffffffffff021916908373ffffffffffffffffffffffffffffffffffffffff160217905550808273ffffffffffffffffffffffffffffffffffffffff16600073ffffffffffffffffffffffffffffffffffffffff167fddf252ad1be2c89b69c2b068fc378daa952ba7f163c4a11628f55a4df523b3ef60405160405180910390a4611862600083836001611ccd565b5050565b61186f82611c7a565b6118ae576040517f08c379a00000000000000000000000000000000000000000000000000000000081526004016118a590613b8f565b60405180910390fd5b806006600084815260200190815260200160002090816118ce9190613d5b565b505050565b6001816000016000828254019250508190555050565b60006002600083815260200190815260200160002060009054906101000a900473ffffffffffffffffffffffffffffffffffffffff169050919050565b8173ffffffffffffffffffffffffffffffffffffffff168373ffffffffffffffffffffffffffffffffffffffff1603611994576040517f08c379a000000000000000000000000000000000000000000000000000000000815260040161198b90613e79565b60405180910390fd5b80600560008573ffffffffffffffffffffffffffffffffffffffff1673ffffffffffffffffffffffffffffffffffffffff16815260200190815260200160002060008473ffffffffffffffffffffffffffffffffffffffff1673ffffffffffffffffffffffffffffffffffffffff16815260200190815260200160002060006101000a81548160ff0219169083151502179055508173ffffffffffffffffffffffffffffffffffffffff168373ffffffffffffffffffffffffffffffffffffffff167f17307eab39ab6107e8899845ad3d59bd9653f200f220920489ca2b5937696c3183604051611a859190612b95565b60405180910390a3505050565b611a9d84848461116b565b611aa984848484611d58565b611ae8576040517f08c379a0000000000000000000000000000000000000000000000000000000008152600401611adf90613f0b565b60405180910390fd5b50505050565b6060611af982610fca565b6000600660008481526020019081526020016000208054611b1990613374565b80601f0160208091040260200160405190810160405280929190818152602001828054611b4590613374565b8015611b925780601f10611b6757610100808354040283529160200191611b92565b820191906000526020600020905b815481529060010190602001808311611b7557829003601f168201915b505050505090506000611ba3611edf565b90506000815103611bb8578192505050611bfb565b600082511115611bed578082604051602001611bd5929190613f67565b60405160208183030381529060405292505050611bfb565b611bf684611ef6565b925050505b919050565b60007f780e9d63000000000000000000000000000000000000000000000000000000007bffffffffffffffffffffffffffffffffffffffffffffffffffffffff1916827bffffffffffffffffffffffffffffffffffffffffffffffffffffffff19161480611c735750611c7282611f5e565b5b9050919050565b60008073ffffffffffffffffffffffffffffffffffffffff16611c9c836118e9565b73ffffffffffffffffffffffffffffffffffffffff1614159050919050565b611cc784848484612040565b50505050565b50505050565b611cdd8282610c5b565b611d5457611cea8161219e565b611cf88360001c60206121cb565b604051602001611d09929190614023565b6040516020818303038152906040526040517f08c379a0000000000000000000000000000000000000000000000000000000008152600401611d4b9190612c40565b60405180910390fd5b5050565b6000611d798473ffffffffffffffffffffffffffffffffffffffff16612407565b15611ed2578373ffffffffffffffffffffffffffffffffffffffff1663150b7a02611da2611015565b8786866040518563ffffffff1660e01b8152600401611dc494939291906140b2565b6020604051808303816000875af1925050508015611e0057506040513d601f19601f82011682018060405250810190611dfd9190614113565b60015b611e82573d8060008114611e30576040519150601f19603f3d011682016040523d82523d6000602084013e611e35565b606091505b506000815103611e7a576040517f08c379a0000000000000000000000000000000000000000000000000000000008152600401611e7190613f0b565b60405180910390fd5b805181602001fd5b63150b7a0260e01b7bffffffffffffffffffffffffffffffffffffffffffffffffffffffff1916817bffffffffffffffffffffffffffffffffffffffffffffffffffffffff191614915050611ed7565b600190505b949350505050565b606060405180602001604052806000815250905090565b6060611f0182610fca565b6000611f0b611edf565b90506000815111611f2b5760405180602001604052806000815250611f56565b80611f358461242a565b604051602001611f46929190613f67565b6040516020818303038152906040525b915050919050565b60007f80ac58cd000000000000000000000000000000000000000000000000000000007bffffffffffffffffffffffffffffffffffffffffffffffffffffffff1916827bffffffffffffffffffffffffffffffffffffffffffffffffffffffff1916148061202957507f5b5e139f000000000000000000000000000000000000000000000000000000007bffffffffffffffffffffffffffffffffffffffffffffffffffffffff1916827bffffffffffffffffffffffffffffffffffffffffffffffffffffffff1916145b806120395750612038826124f8565b5b9050919050565b61204c84848484612562565b6001811115612090576040517f08c379a0000000000000000000000000000000000000000000000000000000008152600401612087906141b2565b60405180910390fd5b6000829050600073ffffffffffffffffffffffffffffffffffffffff168573ffffffffffffffffffffffffffffffffffffffff16036120d7576120d281612688565b612116565b8373ffffffffffffffffffffffffffffffffffffffff168573ffffffffffffffffffffffffffffffffffffffff16146121155761211485826126d1565b5b5b600073ffffffffffffffffffffffffffffffffffffffff168473ffffffffffffffffffffffffffffffffffffffff1603612158576121538161283e565b612197565b8473ffffffffffffffffffffffffffffffffffffffff168473ffffffffffffffffffffffffffffffffffffffff161461219657612195848261290f565b5b5b5050505050565b60606121c48273ffffffffffffffffffffffffffffffffffffffff16601460ff166121cb565b9050919050565b6060600060028360026121de91906141d2565b6121e89190614214565b67ffffffffffffffff81111561220157612200612ee1565b5b6040519080825280601f01601f1916602001820160405280156122335781602001600182028036833780820191505090505b5090507f30000000000000000000000000000000000000000000000000000000000000008160008151811061226b5761226a61377d565b5b60200101907effffffffffffffffffffffffffffffffffffffffffffffffffffffffffffff1916908160001a9053507f7800000000000000000000000000000000000000000000000000000000000000816001815181106122cf576122ce61377d565b5b60200101907effffffffffffffffffffffffffffffffffffffffffffffffffffffffffffff1916908160001a9053506000600184600261230f91906141d2565b6123199190614214565b90505b60018111156123b9577f3031323334353637383961626364656600000000000000000000000000000000600f86166010811061235b5761235a61377d565b5b1a60f81b8282815181106123725761237161377d565b5b60200101907effffffffffffffffffffffffffffffffffffffffffffffffffffffffffffff1916908160001a905350600485901c9450806123b290614248565b905061231c565b50600084146123fd576040517f08c379a00000000000000000000000000000000000000000000000000000000081526004016123f4906142bd565b60405180910390fd5b8091505092915050565b6000808273ffffffffffffffffffffffffffffffffffffffff163b119050919050565b6060600060016124398461298e565b01905060008167ffffffffffffffff81111561245857612457612ee1565b5b6040519080825280601f01601f19166020018201604052801561248a5781602001600182028036833780820191505090505b509050600082602001820190505b6001156124ed578080600190039150507f3031323334353637383961626364656600000000000000000000000000000000600a86061a8153600a85816124e1576124e06142dd565b5b04945060008503612498575b819350505050919050565b60007f01ffc9a7000000000000000000000000000000000000000000000000000000007bffffffffffffffffffffffffffffffffffffffffffffffffffffffff1916827bffffffffffffffffffffffffffffffffffffffffffffffffffffffff1916149050919050565b600181111561268257600073ffffffffffffffffffffffffffffffffffffffff168473ffffffffffffffffffffffffffffffffffffffff16146125f65780600360008673ffffffffffffffffffffffffffffffffffffffff1673ffffffffffffffffffffffffffffffffffffffff16815260200190815260200160002060008282546125ee919061430c565b925050819055505b600073ffffffffffffffffffffffffffffffffffffffff168373ffffffffffffffffffffffffffffffffffffffff16146126815780600360008573ffffffffffffffffffffffffffffffffffffffff1673ffffffffffffffffffffffffffffffffffffffff16815260200190815260200160002060008282546126799190614214565b925050819055505b5b50505050565b600980549050600a600083815260200190815260200160002081905550600981908060018154018082558091505060019003906000526020600020016000909190919091505550565b600060016126de84610af6565b6126e8919061430c565b90506000600860008481526020019081526020016000205490508181146127cd576000600760008673ffffffffffffffffffffffffffffffffffffffff1673ffffffffffffffffffffffffffffffffffffffff168152602001908152602001600020600084815260200190815260200160002054905080600760008773ffffffffffffffffffffffffffffffffffffffff1673ffffffffffffffffffffffffffffffffffffffff168152602001908152602001600020600084815260200190815260200160002081905550816008600083815260200190815260200160002081905550505b6008600084815260200190815260200160002060009055600760008573ffffffffffffffffffffffffffffffffffffffff1673ffffffffffffffffffffffffffffffffffffffff16815260200190815260200160002060008381526020019081526020016000206000905550505050565b60006001600980549050612852919061430c565b90506000600a60008481526020019081526020016000205490506000600983815481106128825761288161377d565b5b9060005260206000200154905080600983815481106128a4576128a361377d565b5b906000526020600020018190555081600a600083815260200190815260200160002081905550600a60008581526020019081526020016000206000905560098054806128f3576128f2614340565b5b6001900381819060005260206000200160009055905550505050565b600061291a83610af6565b905081600760008573ffffffffffffffffffffffffffffffffffffffff1673ffffffffffffffffffffffffffffffffffffffff168152602001908152602001600020600083815260200190815260200160002081905550806008600084815260200190815260200160002081905550505050565b600080600090507a184f03e93ff9f4daa797ed6e38ed64bf6a1f01000000000000000083106129ec577a184f03e93ff9f4daa797ed6e38ed64bf6a1f01000000000000000083816129e2576129e16142dd565b5b0492506040810190505b6d04ee2d6d415b85acef81000000008310612a29576d04ee2d6d415b85acef81000000008381612a1f57612a1e6142dd565b5b0492506020810190505b662386f26fc100008310612a5857662386f26fc100008381612a4e57612a4d6142dd565b5b0492506010810190505b6305f5e1008310612a81576305f5e1008381612a7757612a766142dd565b5b0492506008810190505b6127108310612aa6576127108381612a9c57612a9b6142dd565b5b0492506004810190505b60648310612ac95760648381612abf57612abe6142dd565b5b0492506002810190505b600a8310612ad8576001810190505b80915050919050565b6000604051905090565b600080fd5b600080fd5b60007fffffffff0000000000000000000000000000000000000000000000000000000082169050919050565b612b2a81612af5565b8114612b3557600080fd5b50565b600081359050612b4781612b21565b92915050565b600060208284031215612b6357612b62612aeb565b5b6000612b7184828501612b38565b91505092915050565b60008115159050919050565b612b8f81612b7a565b82525050565b6000602082019050612baa6000830184612b86565b92915050565b600081519050919050565b600082825260208201905092915050565b60005b83811015612bea578082015181840152602081019050612bcf565b60008484015250505050565b6000601f19601f8301169050919050565b6000612c1282612bb0565b612c1c8185612bbb565b9350612c2c818560208601612bcc565b612c3581612bf6565b840191505092915050565b60006020820190508181036000830152612c5a8184612c07565b905092915050565b6000819050919050565b612c7581612c62565b8114612c8057600080fd5b50565b600081359050612c9281612c6c565b92915050565b600060208284031215612cae57612cad612aeb565b5b6000612cbc84828501612c83565b91505092915050565b600073ffffffffffffffffffffffffffffffffffffffff82169050919050565b6000612cf082612cc5565b9050919050565b612d0081612ce5565b82525050565b6000602082019050612d1b6000830184612cf7565b92915050565b612d2a81612ce5565b8114612d3557600080fd5b50565b600081359050612d4781612d21565b92915050565b60008060408385031215612d6457612d63612aeb565b5b6000612d7285828601612d38565b9250506020612d8385828601612c83565b9150509250929050565b612d9681612c62565b82525050565b6000602082019050612db16000830184612d8d565b92915050565b600080600060608486031215612dd057612dcf612aeb565b5b6000612dde86828701612d38565b9350506020612def86828701612d38565b9250506040612e0086828701612c83565b9150509250925092565b6000819050919050565b612e1d81612e0a565b8114612e2857600080fd5b50565b600081359050612e3a81612e14565b92915050565b600060208284031215612e5657612e55612aeb565b5b6000612e6484828501612e2b565b91505092915050565b612e7681612e0a565b82525050565b6000602082019050612e916000830184612e6d565b92915050565b60008060408385031215612eae57612ead612aeb565b5b6000612ebc85828601612e2b565b9250506020612ecd85828601612d38565b9150509250929050565b600080fd5b600080fd5b7f4e487b7100000000000000000000000000000000000000000000000000000000600052604160045260246000fd5b612f1982612bf6565b810181811067ffffffffffffffff82111715612f3857612f37612ee1565b5b80604052505050565b6000612f4b612ae1565b9050612f578282612f10565b919050565b600067ffffffffffffffff821115612f7757612f76612ee1565b5b612f8082612bf6565b9050602081019050919050565b82818337600083830152505050565b6000612faf612faa84612f5c565b612f41565b905082815260208101848484011115612fcb57612fca612edc565b5b612fd6848285612f8d565b509392505050565b600082601f830112612ff357612ff2612ed7565b5b8135613003848260208601612f9c565b91505092915050565b6000806040838503121561302357613022612aeb565b5b600061303185828601612d38565b925050602083013567ffffffffffffffff81111561305257613051612af0565b5b61305e85828601612fde565b9150509250929050565b60006020828403121561307e5761307d612aeb565b5b600061308c84828501612d38565b91505092915050565b600081519050919050565b600082825260208201905092915050565b6000819050602082019050919050565b6130ca81612c62565b82525050565b60006130dc83836130c1565b60208301905092915050565b6000602082019050919050565b600061310082613095565b61310a81856130a0565b9350613115836130b1565b8060005b8381101561314657815161312d88826130d0565b9750613138836130e8565b925050600181019050613119565b5085935050505092915050565b6000602082019050818103600083015261316d81846130f5565b905092915050565b61317e81612b7a565b811461318957600080fd5b50565b60008135905061319b81613175565b92915050565b600080604083850312156131b8576131b7612aeb565b5b60006131c685828601612d38565b92505060206131d78582860161318c565b9150509250929050565b600067ffffffffffffffff8211156131fc576131fb612ee1565b5b61320582612bf6565b9050602081019050919050565b6000613225613220846131e1565b612f41565b90508281526020810184848401111561324157613240612edc565b5b61324c848285612f8d565b509392505050565b600082601f83011261326957613268612ed7565b5b8135613279848260208601613212565b91505092915050565b6000806000806080858703121561329c5761329b612aeb565b5b60006132aa87828801612d38565b94505060206132bb87828801612d38565b93505060406132cc87828801612c83565b925050606085013567ffffffffffffffff8111156132ed576132ec612af0565b5b6132f987828801613254565b91505092959194509250565b6000806040838503121561331c5761331b612aeb565b5b600061332a85828601612d38565b925050602061333b85828601612d38565b9150509250929050565b7f4e487b7100000000000000000000000000000000000000000000000000000000600052602260045260246000fd5b6000600282049050600182168061338c57607f821691505b60208210810361339f5761339e613345565b5b50919050565b7f4552433732313a20617070726f76616c20746f2063757272656e74206f776e6560008201527f7200000000000000000000000000000000000000000000000000000000000000602082015250565b6000613401602183612bbb565b915061340c826133a5565b604082019050919050565b60006020820190508181036000830152613430816133f4565b9050919050565b7f4552433732313a20617070726f76652063616c6c6572206973206e6f7420746f60008201527f6b656e206f776e6572206f7220617070726f76656420666f7220616c6c000000602082015250565b6000613493603d83612bbb565b915061349e82613437565b604082019050919050565b600060208201905081810360008301526134c281613486565b9050919050565b7f4552433732313a2063616c6c6572206973206e6f7420746f6b656e206f776e6560008201527f72206f7220617070726f76656400000000000000000000000000000000000000602082015250565b6000613525602d83612bbb565b9150613530826134c9565b604082019050919050565b6000602082019050818103600083015261355481613518565b9050919050565b7f455243373231456e756d657261626c653a206f776e657220696e646578206f7560008201527f74206f6620626f756e6473000000000000000000000000000000000000000000602082015250565b60006135b7602b83612bbb565b91506135c28261355b565b604082019050919050565b600060208201905081810360008301526135e6816135aa565b9050919050565b7f416363657373436f6e74726f6c3a2063616e206f6e6c792072656e6f756e636560008201527f20726f6c657320666f722073656c660000000000000000000000000000000000602082015250565b6000613649602f83612bbb565b9150613654826135ed565b604082019050919050565b600060208201905081810360008301526136788161363c565b9050919050565b7f43616c6c6572206973206e6f742061206d696e74657200000000000000000000600082015250565b60006136b5601683612bbb565b91506136c08261367f565b602082019050919050565b600060208201905081810360008301526136e4816136a8565b9050919050565b7f455243373231456e756d657261626c653a20676c6f62616c20696e646578206f60008201527f7574206f6620626f756e64730000000000000000000000000000000000000000602082015250565b6000613747602c83612bbb565b9150613752826136eb565b604082019050919050565b600060208201905081810360008301526137768161373a565b9050919050565b7f4e487b7100000000000000000000000000000000000000000000000000000000600052603260045260246000fd5b7f4552433732313a20696e76616c696420746f6b656e2049440000000000000000600082015250565b60006137e2601883612bbb565b91506137ed826137ac565b602082019050919050565b60006020820190508181036000830152613811816137d5565b9050919050565b7f4552433732313a2061646472657373207a65726f206973206e6f74206120766160008201527f6c6964206f776e65720000000000000000000000000000000000000000000000602082015250565b6000613874602983612bbb565b915061387f82613818565b604082019050919050565b600060208201905081810360008301526138a381613867565b9050919050565b7f4e487b7100000000000000000000000000000000000000000000000000000000600052601160045260246000fd5b60006138e482612c62565b91507fffffffffffffffffffffffffffffffffffffffffffffffffffffffffffffffff8203613916576139156138aa565b5b600182019050919050565b7f4552433732313a207472616e736665722066726f6d20696e636f72726563742060008201527f6f776e6572000000000000000000000000000000000000000000000000000000602082015250565b600061397d602583612bbb565b915061398882613921565b604082019050919050565b600060208201905081810360008301526139ac81613970565b9050919050565b7f4552433732313a207472616e7366657220746f20746865207a65726f2061646460008201527f7265737300000000000000000000000000000000000000000000000000000000602082015250565b6000613a0f602483612bbb565b9150613a1a826139b3565b604082019050919050565b60006020820190508181036000830152613a3e81613a02565b9050919050565b7f4552433732313a206d696e7420746f20746865207a65726f2061646472657373600082015250565b6000613a7b602083612bbb565b9150613a8682613a45565b602082019050919050565b60006020820190508181036000830152613aaa81613a6e565b9050919050565b7f4552433732313a20746f6b656e20616c7265616479206d696e74656400000000600082015250565b6000613ae7601c83612bbb565b9150613af282613ab1565b602082019050919050565b60006020820190508181036000830152613b1681613ada565b9050919050565b7f45524337323155524953746f726167653a2055524920736574206f66206e6f6e60008201527f6578697374656e7420746f6b656e000000000000000000000000000000000000602082015250565b6000613b79602e83612bbb565b9150613b8482613b1d565b604082019050919050565b60006020820190508181036000830152613ba881613b6c565b9050919050565b60008190508160005260206000209050919050565b60006020601f8301049050919050565b600082821b905092915050565b600060088302613c117fffffffffffffffffffffffffffffffffffffffffffffffffffffffffffffffff82613bd4565b613c1b8683613bd4565b95508019841693508086168417925050509392505050565b6000819050919050565b6000613c58613c53613c4e84612c62565b613c33565b612c62565b9050919050565b6000819050919050565b613c7283613c3d565b613c86613c7e82613c5f565b848454613be1565b825550505050565b600090565b613c9b613c8e565b613ca6818484613c69565b505050565b5b81811015613cca57613cbf600082613c93565b600181019050613cac565b5050565b601f821115613d0f57613ce081613baf565b613ce984613bc4565b81016020851015613cf8578190505b613d0c613d0485613bc4565b830182613cab565b50505b505050565b600082821c905092915050565b6000613d3260001984600802613d14565b1980831691505092915050565b6000613d4b8383613d21565b9150826002028217905092915050565b613d6482612bb0565b67ffffffffffffffff811115613d7d57613d7c612ee1565b5b613d878254613374565b613d92828285613cce565b600060209050601f831160018114613dc55760008415613db3578287015190505b613dbd8582613d3f565b865550613e25565b601f198416613dd386613baf565b60005b82811015613dfb57848901518255600182019150602085019450602081019050613dd6565b86831015613e185784890151613e14601f891682613d21565b8355505b6001600288020188555050505b505050505050565b7f4552433732313a20617070726f766520746f2063616c6c657200000000000000600082015250565b6000613e63601983612bbb565b9150613e6e82613e2d565b602082019050919050565b60006020820190508181036000830152613e9281613e56565b9050919050565b7f4552433732313a207472616e7366657220746f206e6f6e20455243373231526560008201527f63656976657220696d706c656d656e7465720000000000000000000000000000602082015250565b6000613ef5603283612bbb565b9150613f0082613e99565b604082019050919050565b60006020820190508181036000830152613f2481613ee8565b9050919050565b600081905092915050565b6000613f4182612bb0565b613f4b8185613f2b565b9350613f5b818560208601612bcc565b80840191505092915050565b6000613f738285613f36565b9150613f7f8284613f36565b91508190509392505050565b7f416363657373436f6e74726f6c3a206163636f756e7420000000000000000000600082015250565b6000613fc1601783613f2b565b9150613fcc82613f8b565b601782019050919050565b7f206973206d697373696e6720726f6c6520000000000000000000000000000000600082015250565b600061400d601183613f2b565b915061401882613fd7565b601182019050919050565b600061402e82613fb4565b915061403a8285613f36565b915061404582614000565b91506140518284613f36565b91508190509392505050565b600081519050919050565b600082825260208201905092915050565b60006140848261405d565b61408e8185614068565b935061409e818560208601612bcc565b6140a781612bf6565b840191505092915050565b60006080820190506140c76000830187612cf7565b6140d46020830186612cf7565b6140e16040830185612d8d565b81810360608301526140f38184614079565b905095945050505050565b60008151905061410d81612b21565b92915050565b60006020828403121561412957614128612aeb565b5b6000614137848285016140fe565b91505092915050565b7f455243373231456e756d657261626c653a20636f6e736563757469766520747260008201527f616e7366657273206e6f7420737570706f727465640000000000000000000000602082015250565b600061419c603583612bbb565b91506141a782614140565b604082019050919050565b600060208201905081810360008301526141cb8161418f565b9050919050565b60006141dd82612c62565b91506141e883612c62565b92508282026141f681612c62565b9150828204841483151761420d5761420c6138aa565b5b5092915050565b600061421f82612c62565b915061422a83612c62565b9250828201905080821115614242576142416138aa565b5b92915050565b600061425382612c62565b915060008203614266576142656138aa565b5b600182039050919050565b7f537472696e67733a20686578206c656e67746820696e73756666696369656e74600082015250565b60006142a7602083612bbb565b91506142b282614271565b602082019050919050565b600060208201905081810360008301526142d68161429a565b9050919050565b7f4e487b7100000000000000000000000000000000000000000000000000000000600052601260045260246000fd5b600061431782612c62565b915061432283612c62565b925082820390508181111561433a576143396138aa565b5b92915050565b7f4e487b7100000000000000000000000000000000000000000000000000000000600052603160045260246000fdfea264697066735822122051cabf544e3f30edf5a902ddc00531f9030a41d4a96925884cbb3da26e720d3664736f6c63430008110033",
  "immutableReferences": {},
  "source": "//SPDX-License-Identifier: MIT\npragma solidity ^0.8.17;\n\nimport \"@openzeppelin/contracts/token/ERC721/extensions/ERC721URIStorage.sol\";\nimport \"@openzeppelin/contracts/token/ERC721/extensions/ERC721Enumerable.sol\";\nimport \"@openzeppelin/contracts/access/AccessControl.sol\";\nimport \"@openzeppelin/contracts/utils/Counters.sol\";\nimport \"@openzeppelin/contracts/utils/math/SafeMath.sol\";\n\n\ncontract TokenMerito is ERC721URIStorage, ERC721Enumerable, AccessControl {\n    bytes32 public constant MINTER_ROLE = keccak256(\"MINTER_ROLE\");\n    using SafeMath for uint256;\n    using Counters for Counters.Counter;\n    \n    Counters.Counter private _tokenIds;\n    \n    string public baseTokenURI;\n    \n    constructor() ERC721(\"TokenMerito\", \"TOME\") {\n        _setupRole(DEFAULT_ADMIN_ROLE, msg.sender);\n    }\n    \n    function awardAchievement(address student, string memory uri)\n        public\n        returns (uint256)\n    {\n        require(hasRole(MINTER_ROLE, msg.sender), \"Caller is not a minter\");\n        \n        uint256 newItemId = _tokenIds.current();\n        _mint(student, newItemId);\n        _setTokenURI(newItemId, uri);\n\n        _tokenIds.increment();\n        return newItemId;\n    }\n\n    function tokensOfOwner(address _owner) external view returns (uint[] memory) {\n        uint tokenCount = balanceOf(_owner);\n        uint[] memory tokensId = new uint256[](tokenCount);\n\n        for (uint i = 0; i < tokenCount; i++) {\n            tokensId[i] = tokenOfOwnerByIndex(_owner, i);\n        }\n        return tokensId;\n    }\n\n   function _beforeTokenTransfer(address from, address to, uint256 tokenId, uint256 batchSize)\n        internal\n        override(ERC721, ERC721Enumerable)\n    {\n        super._beforeTokenTransfer(from, to, tokenId, batchSize);\n    }\n\n    function _burn(uint256 tokenId) internal override(ERC721, ERC721URIStorage) {\n        super._burn(tokenId);\n    }\n\n    function tokenURI(uint256 tokenId)\n        public\n        view\n        override(ERC721, ERC721URIStorage)\n        returns (string memory)\n    {\n        return super.tokenURI(tokenId);\n    }\n\n    function supportsInterface(bytes4 interfaceId)\n        public\n        view\n        override(ERC721, ERC721Enumerable, AccessControl)\n        returns (bool)\n    {\n        return super.supportsInterface(interfaceId);\n    }\n    \n}",
  "sourcePath": "/Users/raymondmauge/git-proyecto-integrador/GETH-NODE2/truffle/contracts/TokenMerito.sol",
  "compiler": {
    "name": "solc",
    "version": "0.8.17+commit.8df45f5f.Emscripten.clang"
  },
  "schemaVersion": "3.4.11",
  "updatedAt": "2023-01-12T04:34:55.178Z",
  "networkType": "ethereum",
  "devdoc": {
    "kind": "dev",
    "methods": {
      "approve(address,uint256)": {
        "details": "See {IERC721-approve}."
      },
      "balanceOf(address)": {
        "details": "See {IERC721-balanceOf}."
      },
      "getApproved(uint256)": {
        "details": "See {IERC721-getApproved}."
      },
      "getRoleAdmin(bytes32)": {
        "details": "Returns the admin role that controls `role`. See {grantRole} and {revokeRole}. To change a role's admin, use {_setRoleAdmin}."
      },
      "grantRole(bytes32,address)": {
        "details": "Grants `role` to `account`. If `account` had not been already granted `role`, emits a {RoleGranted} event. Requirements: - the caller must have ``role``'s admin role. May emit a {RoleGranted} event."
      },
      "hasRole(bytes32,address)": {
        "details": "Returns `true` if `account` has been granted `role`."
      },
      "isApprovedForAll(address,address)": {
        "details": "See {IERC721-isApprovedForAll}."
      },
      "name()": {
        "details": "See {IERC721Metadata-name}."
      },
      "ownerOf(uint256)": {
        "details": "See {IERC721-ownerOf}."
      },
      "renounceRole(bytes32,address)": {
        "details": "Revokes `role` from the calling account. Roles are often managed via {grantRole} and {revokeRole}: this function's purpose is to provide a mechanism for accounts to lose their privileges if they are compromised (such as when a trusted device is misplaced). If the calling account had been revoked `role`, emits a {RoleRevoked} event. Requirements: - the caller must be `account`. May emit a {RoleRevoked} event."
      },
      "revokeRole(bytes32,address)": {
        "details": "Revokes `role` from `account`. If `account` had been granted `role`, emits a {RoleRevoked} event. Requirements: - the caller must have ``role``'s admin role. May emit a {RoleRevoked} event."
      },
      "safeTransferFrom(address,address,uint256)": {
        "details": "See {IERC721-safeTransferFrom}."
      },
      "safeTransferFrom(address,address,uint256,bytes)": {
        "details": "See {IERC721-safeTransferFrom}."
      },
      "setApprovalForAll(address,bool)": {
        "details": "See {IERC721-setApprovalForAll}."
      },
      "symbol()": {
        "details": "See {IERC721Metadata-symbol}."
      },
      "tokenByIndex(uint256)": {
        "details": "See {IERC721Enumerable-tokenByIndex}."
      },
      "tokenOfOwnerByIndex(address,uint256)": {
        "details": "See {IERC721Enumerable-tokenOfOwnerByIndex}."
      },
      "totalSupply()": {
        "details": "See {IERC721Enumerable-totalSupply}."
      },
      "transferFrom(address,address,uint256)": {
        "details": "See {IERC721-transferFrom}."
      }
    },
    "version": 1
  },
  "userdoc": {
    "kind": "user",
    "methods": {},
    "version": 1
  }
}